{
  "contractName": "EnergyTradeHub",
  "abi": [
    {
      "inputs": [],
      "stateMutability": "nonpayable",
      "type": "constructor"
    },
    {
      "inputs": [],
      "name": "AccessControlBadConfirmation",
      "type": "error"
    },
    {
      "inputs": [
        {
          "internalType": "address",
          "name": "account",
          "type": "address"
        },
        {
          "internalType": "bytes32",
          "name": "neededRole",
          "type": "bytes32"
        }
      ],
      "name": "AccessControlUnauthorizedAccount",
      "type": "error"
    },
    {
      "inputs": [
        {
          "internalType": "address",
          "name": "account",
          "type": "address"
        }
      ],
      "name": "AddressInsufficientBalance",
      "type": "error"
    },
    {
      "inputs": [
        {
          "internalType": "address",
          "name": "sender",
          "type": "address"
        },
        {
          "internalType": "uint256",
          "name": "tokenId",
          "type": "uint256"
        },
        {
          "internalType": "address",
          "name": "owner",
          "type": "address"
        }
      ],
      "name": "ERC721IncorrectOwner",
      "type": "error"
    },
    {
      "inputs": [
        {
          "internalType": "address",
          "name": "operator",
          "type": "address"
        },
        {
          "internalType": "uint256",
          "name": "tokenId",
          "type": "uint256"
        }
      ],
      "name": "ERC721InsufficientApproval",
      "type": "error"
    },
    {
      "inputs": [
        {
          "internalType": "address",
          "name": "approver",
          "type": "address"
        }
      ],
      "name": "ERC721InvalidApprover",
      "type": "error"
    },
    {
      "inputs": [
        {
          "internalType": "address",
          "name": "operator",
          "type": "address"
        }
      ],
      "name": "ERC721InvalidOperator",
      "type": "error"
    },
    {
      "inputs": [
        {
          "internalType": "address",
          "name": "owner",
          "type": "address"
        }
      ],
      "name": "ERC721InvalidOwner",
      "type": "error"
    },
    {
      "inputs": [
        {
          "internalType": "address",
          "name": "receiver",
          "type": "address"
        }
      ],
      "name": "ERC721InvalidReceiver",
      "type": "error"
    },
    {
      "inputs": [
        {
          "internalType": "address",
          "name": "sender",
          "type": "address"
        }
      ],
      "name": "ERC721InvalidSender",
      "type": "error"
    },
    {
      "inputs": [
        {
          "internalType": "uint256",
          "name": "tokenId",
          "type": "uint256"
        }
      ],
      "name": "ERC721NonexistentToken",
      "type": "error"
    },
    {
      "inputs": [],
      "name": "FailedInnerCall",
      "type": "error"
    },
    {
      "inputs": [],
      "name": "ReentrancyGuardReentrantCall",
      "type": "error"
    },
    {
      "anonymous": false,
      "inputs": [
        {
          "indexed": true,
          "internalType": "address",
          "name": "owner",
          "type": "address"
        },
        {
          "indexed": true,
          "internalType": "address",
          "name": "approved",
          "type": "address"
        },
        {
          "indexed": true,
          "internalType": "uint256",
          "name": "tokenId",
          "type": "uint256"
        }
      ],
      "name": "Approval",
      "type": "event"
    },
    {
      "anonymous": false,
      "inputs": [
        {
          "indexed": true,
          "internalType": "address",
          "name": "owner",
          "type": "address"
        },
        {
          "indexed": true,
          "internalType": "address",
          "name": "operator",
          "type": "address"
        },
        {
          "indexed": false,
          "internalType": "bool",
          "name": "approved",
          "type": "bool"
        }
      ],
      "name": "ApprovalForAll",
      "type": "event"
    },
    {
      "anonymous": false,
      "inputs": [
        {
          "indexed": false,
          "internalType": "uint256",
          "name": "_fromTokenId",
          "type": "uint256"
        },
        {
          "indexed": false,
          "internalType": "uint256",
          "name": "_toTokenId",
          "type": "uint256"
        }
      ],
      "name": "BatchMetadataUpdate",
      "type": "event"
    },
    {
      "anonymous": false,
      "inputs": [
        {
          "indexed": false,
          "internalType": "uint256",
          "name": "_tokenId",
          "type": "uint256"
        }
      ],
      "name": "MetadataUpdate",
      "type": "event"
    },
    {
      "anonymous": false,
      "inputs": [
        {
          "indexed": true,
          "internalType": "bytes32",
          "name": "role",
          "type": "bytes32"
        },
        {
          "indexed": true,
          "internalType": "bytes32",
          "name": "previousAdminRole",
          "type": "bytes32"
        },
        {
          "indexed": true,
          "internalType": "bytes32",
          "name": "newAdminRole",
          "type": "bytes32"
        }
      ],
      "name": "RoleAdminChanged",
      "type": "event"
    },
    {
      "anonymous": false,
      "inputs": [
        {
          "indexed": true,
          "internalType": "bytes32",
          "name": "role",
          "type": "bytes32"
        },
        {
          "indexed": true,
          "internalType": "address",
          "name": "account",
          "type": "address"
        },
        {
          "indexed": true,
          "internalType": "address",
          "name": "sender",
          "type": "address"
        }
      ],
      "name": "RoleGranted",
      "type": "event"
    },
    {
      "anonymous": false,
      "inputs": [
        {
          "indexed": true,
          "internalType": "bytes32",
          "name": "role",
          "type": "bytes32"
        },
        {
          "indexed": true,
          "internalType": "address",
          "name": "account",
          "type": "address"
        },
        {
          "indexed": true,
          "internalType": "address",
          "name": "sender",
          "type": "address"
        }
      ],
      "name": "RoleRevoked",
      "type": "event"
    },
    {
      "anonymous": false,
      "inputs": [
        {
          "indexed": false,
          "internalType": "uint256",
          "name": "tokenId",
          "type": "uint256"
        },
        {
          "indexed": false,
          "internalType": "address",
          "name": "burner",
          "type": "address"
        }
      ],
      "name": "TokenBurned",
      "type": "event"
    },
    {
      "anonymous": false,
      "inputs": [
        {
          "indexed": false,
          "internalType": "uint256",
          "name": "tokenId",
          "type": "uint256"
        },
        {
          "indexed": false,
          "internalType": "address",
          "name": "owner",
          "type": "address"
        },
        {
          "indexed": false,
          "internalType": "string",
          "name": "energyType",
          "type": "string"
        },
        {
          "indexed": false,
          "internalType": "uint256",
          "name": "validFrom",
          "type": "uint256"
        },
        {
          "indexed": false,
          "internalType": "uint256",
          "name": "validTo",
          "type": "uint256"
        },
        {
          "indexed": false,
          "internalType": "uint256",
          "name": "startTime",
          "type": "uint256"
        },
        {
          "indexed": false,
          "internalType": "uint256",
          "name": "endTime",
          "type": "uint256"
        },
        {
          "indexed": false,
          "internalType": "uint256",
          "name": "amountInKw",
          "type": "uint256"
        }
      ],
      "name": "TokenCreated",
      "type": "event"
    },
    {
      "anonymous": false,
      "inputs": [
        {
          "indexed": false,
          "internalType": "uint256",
          "name": "tokenId",
          "type": "uint256"
        },
        {
          "indexed": false,
          "internalType": "uint256",
          "name": "price",
          "type": "uint256"
        }
      ],
      "name": "TokenListedForSale",
      "type": "event"
    },
    {
      "anonymous": false,
      "inputs": [
        {
          "indexed": false,
          "internalType": "uint256",
          "name": "tokenId",
          "type": "uint256"
        },
        {
          "indexed": false,
          "internalType": "address",
          "name": "buyer",
          "type": "address"
        },
        {
          "indexed": false,
          "internalType": "uint256",
          "name": "price",
          "type": "uint256"
        }
      ],
      "name": "TokenPurchased",
      "type": "event"
    },
    {
      "anonymous": false,
      "inputs": [
        {
          "indexed": false,
          "internalType": "uint256",
          "name": "tokenId",
          "type": "uint256"
        }
      ],
      "name": "TokenSaleWithdrawn",
      "type": "event"
    },
    {
      "anonymous": false,
      "inputs": [
        {
          "indexed": true,
          "internalType": "address",
          "name": "from",
          "type": "address"
        },
        {
          "indexed": true,
          "internalType": "address",
          "name": "to",
          "type": "address"
        },
        {
          "indexed": true,
          "internalType": "uint256",
          "name": "tokenId",
          "type": "uint256"
        }
      ],
      "name": "Transfer",
      "type": "event"
    },
    {
      "inputs": [],
      "name": "ADMIN_ROLE",
      "outputs": [
        {
          "internalType": "bytes32",
          "name": "",
          "type": "bytes32"
        }
      ],
      "stateMutability": "view",
      "type": "function",
      "constant": true
    },
    {
      "inputs": [],
      "name": "CONSUMER_ROLE",
      "outputs": [
        {
          "internalType": "bytes32",
          "name": "",
          "type": "bytes32"
        }
      ],
      "stateMutability": "view",
      "type": "function",
      "constant": true
    },
    {
      "inputs": [],
      "name": "DEFAULT_ADMIN_ROLE",
      "outputs": [
        {
          "internalType": "bytes32",
          "name": "",
          "type": "bytes32"
        }
      ],
      "stateMutability": "view",
      "type": "function",
      "constant": true
    },
    {
      "inputs": [],
      "name": "PROVIDER_ROLE",
      "outputs": [
        {
          "internalType": "bytes32",
          "name": "",
          "type": "bytes32"
        }
      ],
      "stateMutability": "view",
      "type": "function",
      "constant": true
    },
    {
      "inputs": [
        {
          "internalType": "address",
          "name": "to",
          "type": "address"
        },
        {
          "internalType": "uint256",
          "name": "tokenId",
          "type": "uint256"
        }
      ],
      "name": "approve",
      "outputs": [],
      "stateMutability": "nonpayable",
      "type": "function"
    },
    {
      "inputs": [
        {
          "internalType": "address",
          "name": "owner",
          "type": "address"
        }
      ],
      "name": "balanceOf",
      "outputs": [
        {
          "internalType": "uint256",
          "name": "",
          "type": "uint256"
        }
      ],
      "stateMutability": "view",
      "type": "function",
      "constant": true
    },
    {
      "inputs": [
        {
          "internalType": "uint256",
          "name": "tokenId",
          "type": "uint256"
        }
      ],
      "name": "getApproved",
      "outputs": [
        {
          "internalType": "address",
          "name": "",
          "type": "address"
        }
      ],
      "stateMutability": "view",
      "type": "function",
      "constant": true
    },
    {
      "inputs": [
        {
          "internalType": "bytes32",
          "name": "role",
          "type": "bytes32"
        }
      ],
      "name": "getRoleAdmin",
      "outputs": [
        {
          "internalType": "bytes32",
          "name": "",
          "type": "bytes32"
        }
      ],
      "stateMutability": "view",
      "type": "function",
      "constant": true
    },
    {
      "inputs": [
        {
          "internalType": "bytes32",
          "name": "role",
          "type": "bytes32"
        },
        {
          "internalType": "address",
          "name": "account",
          "type": "address"
        }
      ],
      "name": "grantRole",
      "outputs": [],
      "stateMutability": "nonpayable",
      "type": "function"
    },
    {
      "inputs": [
        {
          "internalType": "bytes32",
          "name": "role",
          "type": "bytes32"
        },
        {
          "internalType": "address",
          "name": "account",
          "type": "address"
        }
      ],
      "name": "hasRole",
      "outputs": [
        {
          "internalType": "bool",
          "name": "",
          "type": "bool"
        }
      ],
      "stateMutability": "view",
      "type": "function",
      "constant": true
    },
    {
      "inputs": [
        {
          "internalType": "address",
          "name": "owner",
          "type": "address"
        },
        {
          "internalType": "address",
          "name": "operator",
          "type": "address"
        }
      ],
      "name": "isApprovedForAll",
      "outputs": [
        {
          "internalType": "bool",
          "name": "",
          "type": "bool"
        }
      ],
      "stateMutability": "view",
      "type": "function",
      "constant": true
    },
    {
      "inputs": [],
      "name": "name",
      "outputs": [
        {
          "internalType": "string",
          "name": "",
          "type": "string"
        }
      ],
      "stateMutability": "view",
      "type": "function",
      "constant": true
    },
    {
      "inputs": [
        {
          "internalType": "uint256",
          "name": "tokenId",
          "type": "uint256"
        }
      ],
      "name": "ownerOf",
      "outputs": [
        {
          "internalType": "address",
          "name": "",
          "type": "address"
        }
      ],
      "stateMutability": "view",
      "type": "function",
      "constant": true
    },
    {
      "inputs": [
        {
          "internalType": "bytes32",
          "name": "role",
          "type": "bytes32"
        },
        {
          "internalType": "address",
          "name": "callerConfirmation",
          "type": "address"
        }
      ],
      "name": "renounceRole",
      "outputs": [],
      "stateMutability": "nonpayable",
      "type": "function"
    },
    {
      "inputs": [
        {
          "internalType": "bytes32",
          "name": "role",
          "type": "bytes32"
        },
        {
          "internalType": "address",
          "name": "account",
          "type": "address"
        }
      ],
      "name": "revokeRole",
      "outputs": [],
      "stateMutability": "nonpayable",
      "type": "function"
    },
    {
      "inputs": [
        {
          "internalType": "address",
          "name": "from",
          "type": "address"
        },
        {
          "internalType": "address",
          "name": "to",
          "type": "address"
        },
        {
          "internalType": "uint256",
          "name": "tokenId",
          "type": "uint256"
        }
      ],
      "name": "safeTransferFrom",
      "outputs": [],
      "stateMutability": "nonpayable",
      "type": "function"
    },
    {
      "inputs": [
        {
          "internalType": "address",
          "name": "from",
          "type": "address"
        },
        {
          "internalType": "address",
          "name": "to",
          "type": "address"
        },
        {
          "internalType": "uint256",
          "name": "tokenId",
          "type": "uint256"
        },
        {
          "internalType": "bytes",
          "name": "data",
          "type": "bytes"
        }
      ],
      "name": "safeTransferFrom",
      "outputs": [],
      "stateMutability": "nonpayable",
      "type": "function"
    },
    {
      "inputs": [
        {
          "internalType": "address",
          "name": "operator",
          "type": "address"
        },
        {
          "internalType": "bool",
          "name": "approved",
          "type": "bool"
        }
      ],
      "name": "setApprovalForAll",
      "outputs": [],
      "stateMutability": "nonpayable",
      "type": "function"
    },
    {
      "inputs": [],
      "name": "symbol",
      "outputs": [
        {
          "internalType": "string",
          "name": "",
          "type": "string"
        }
      ],
      "stateMutability": "view",
      "type": "function",
      "constant": true
    },
    {
      "inputs": [],
      "name": "tokenCount",
      "outputs": [
        {
          "internalType": "uint256",
          "name": "",
          "type": "uint256"
        }
      ],
      "stateMutability": "view",
      "type": "function",
      "constant": true
    },
    {
      "inputs": [
        {
          "internalType": "uint256",
          "name": "",
          "type": "uint256"
        }
      ],
      "name": "tokenSales",
      "outputs": [
        {
          "internalType": "bool",
          "name": "isForSale",
          "type": "bool"
        },
        {
          "internalType": "uint256",
          "name": "price",
          "type": "uint256"
        }
      ],
      "stateMutability": "view",
      "type": "function",
      "constant": true
    },
    {
      "inputs": [
        {
          "internalType": "uint256",
          "name": "tokenId",
          "type": "uint256"
        }
      ],
      "name": "tokenURI",
      "outputs": [
        {
          "internalType": "string",
          "name": "",
          "type": "string"
        }
      ],
      "stateMutability": "view",
      "type": "function",
      "constant": true
    },
    {
      "inputs": [
        {
          "internalType": "uint256",
          "name": "",
          "type": "uint256"
        }
      ],
      "name": "tokens",
      "outputs": [
        {
          "internalType": "uint256",
          "name": "tokenId",
          "type": "uint256"
        },
        {
          "internalType": "address",
          "name": "owner",
          "type": "address"
        },
        {
          "internalType": "string",
          "name": "energyType",
          "type": "string"
        },
        {
          "internalType": "uint256",
          "name": "validFrom",
          "type": "uint256"
        },
        {
          "internalType": "uint256",
          "name": "validTo",
          "type": "uint256"
        },
        {
          "internalType": "uint256",
          "name": "startTime",
          "type": "uint256"
        },
        {
          "internalType": "uint256",
          "name": "endTime",
          "type": "uint256"
        },
        {
          "internalType": "uint256",
          "name": "amountInKw",
          "type": "uint256"
        },
        {
          "internalType": "uint256",
          "name": "balanceInKw",
          "type": "uint256"
        }
      ],
      "stateMutability": "view",
      "type": "function",
      "constant": true
    },
    {
      "inputs": [
        {
          "internalType": "address",
          "name": "from",
          "type": "address"
        },
        {
          "internalType": "address",
          "name": "to",
          "type": "address"
        },
        {
          "internalType": "uint256",
          "name": "tokenId",
          "type": "uint256"
        }
      ],
      "name": "transferFrom",
      "outputs": [],
      "stateMutability": "nonpayable",
      "type": "function"
    },
    {
      "inputs": [
        {
          "internalType": "bytes4",
          "name": "interfaceId",
          "type": "bytes4"
        }
      ],
      "name": "supportsInterface",
      "outputs": [
        {
          "internalType": "bool",
          "name": "",
          "type": "bool"
        }
      ],
      "stateMutability": "view",
      "type": "function",
      "constant": true
    },
    {
      "inputs": [],
      "name": "registerAsConsumer",
      "outputs": [],
      "stateMutability": "nonpayable",
      "type": "function"
    },
    {
      "inputs": [
        {
          "internalType": "address",
          "name": "provider",
          "type": "address"
        }
      ],
      "name": "addProvider",
      "outputs": [],
      "stateMutability": "nonpayable",
      "type": "function"
    },
    {
      "inputs": [
        {
          "internalType": "string",
          "name": "energyType",
          "type": "string"
        },
        {
          "internalType": "uint256",
          "name": "validFrom",
          "type": "uint256"
        },
        {
          "internalType": "uint256",
          "name": "validTo",
          "type": "uint256"
        },
        {
          "internalType": "uint256",
          "name": "startTime",
          "type": "uint256"
        },
        {
          "internalType": "uint256",
          "name": "endTime",
          "type": "uint256"
        },
        {
          "internalType": "uint256",
          "name": "amountInKw",
          "type": "uint256"
        },
        {
          "internalType": "string",
          "name": "tokenURI",
          "type": "string"
        }
      ],
      "name": "createToken",
      "outputs": [
        {
          "internalType": "uint256",
          "name": "",
          "type": "uint256"
        }
      ],
      "stateMutability": "nonpayable",
      "type": "function"
    },
    {
      "inputs": [
        {
          "internalType": "uint256",
          "name": "tokenId",
          "type": "uint256"
        },
        {
          "internalType": "uint256",
          "name": "price",
          "type": "uint256"
        }
      ],
      "name": "listTokenForSale",
      "outputs": [],
      "stateMutability": "nonpayable",
      "type": "function"
    },
    {
      "inputs": [
        {
          "internalType": "uint256",
          "name": "tokenId",
          "type": "uint256"
        }
      ],
      "name": "withdrawTokenFromSale",
      "outputs": [],
      "stateMutability": "nonpayable",
      "type": "function"
    },
    {
      "inputs": [
        {
          "internalType": "uint256",
          "name": "tokenId",
          "type": "uint256"
        }
      ],
      "name": "buyToken",
      "outputs": [],
      "stateMutability": "payable",
      "type": "function",
      "payable": true
    },
    {
      "inputs": [
        {
          "internalType": "uint256",
          "name": "tokenId",
          "type": "uint256"
        }
      ],
      "name": "burnToken",
      "outputs": [],
      "stateMutability": "nonpayable",
      "type": "function"
    },
    {
      "inputs": [
        {
          "internalType": "uint256",
          "name": "tokenId",
          "type": "uint256"
        }
      ],
      "name": "isWithinValidPeriod",
      "outputs": [
        {
          "internalType": "bool",
          "name": "",
          "type": "bool"
        }
      ],
      "stateMutability": "view",
      "type": "function",
      "constant": true
    }
  ],
  "bytecode": "0x60806040525f60095534801562000014575f80fd5b506040518060400160405280601381526020017f456e657267795472616465487562546f6b656e000000000000000000000000008152506040518060400160405280600481526020017f4554484200000000000000000000000000000000000000000000000000000000815250815f9081620000919190620005b4565b508060019081620000a39190620005b4565b5050506001600781905550620000e07fa49807205ce4d355092ef5a8a18f56e8913cf4a201fbe287825b095693c21775336200016b60201b60201c565b50620001337f18d9ff454de989bd126b06bd404b47ede75f9e65543e94e8d212f89d7dcbb87c7fa49807205ce4d355092ef5a8a18f56e8913cf4a201fbe287825b095693c217756200026760201b60201c565b620001657f9d56108290ea0bc9c5c59c3ad357dca9d1b29ed7f3ae1443bef2fa2159bdf5e8806200026760201b60201c565b62000698565b5f6200017e8383620002c860201b60201c565b6200025d57600160085f8581526020019081526020015f205f015f8473ffffffffffffffffffffffffffffffffffffffff1673ffffffffffffffffffffffffffffffffffffffff1681526020019081526020015f205f6101000a81548160ff021916908315150217905550620001f96200032c60201b60201c565b73ffffffffffffffffffffffffffffffffffffffff168273ffffffffffffffffffffffffffffffffffffffff16847f2f8788117e7eff1d82e926ec794901d17c78024a50270940304540a733656f0d60405160405180910390a46001905062000261565b5f90505b92915050565b5f62000279836200033360201b60201c565b90508160085f8581526020019081526020015f20600101819055508181847fbd79b86ffe0ab8e8776151514217cd7cacd52c909f66475c3af44e129f0b00ff60405160405180910390a4505050565b5f60085f8481526020019081526020015f205f015f8373ffffffffffffffffffffffffffffffffffffffff1673ffffffffffffffffffffffffffffffffffffffff1681526020019081526020015f205f9054906101000a900460ff16905092915050565b5f33905090565b5f60085f8381526020019081526020015f20600101549050919050565b5f81519050919050565b7f4e487b71000000000000000000000000000000000000000000000000000000005f52604160045260245ffd5b7f4e487b71000000000000000000000000000000000000000000000000000000005f52602260045260245ffd5b5f6002820490506001821680620003cc57607f821691505b602082108103620003e257620003e162000387565b5b50919050565b5f819050815f5260205f209050919050565b5f6020601f8301049050919050565b5f82821b905092915050565b5f60088302620004467fffffffffffffffffffffffffffffffffffffffffffffffffffffffffffffffff8262000409565b62000452868362000409565b95508019841693508086168417925050509392505050565b5f819050919050565b5f819050919050565b5f6200049c6200049662000490846200046a565b62000473565b6200046a565b9050919050565b5f819050919050565b620004b7836200047c565b620004cf620004c682620004a3565b84845462000415565b825550505050565b5f90565b620004e5620004d7565b620004f2818484620004ac565b505050565b5b8181101562000519576200050d5f82620004db565b600181019050620004f8565b5050565b601f82111562000568576200053281620003e8565b6200053d84620003fa565b810160208510156200054d578190505b620005656200055c85620003fa565b830182620004f7565b50505b505050565b5f82821c905092915050565b5f6200058a5f19846008026200056d565b1980831691505092915050565b5f620005a4838362000579565b9150826002028217905092915050565b620005bf8262000350565b67ffffffffffffffff811115620005db57620005da6200035a565b5b620005e78254620003b4565b620005f48282856200051d565b5f60209050601f8311600181146200062a575f841562000615578287015190505b62000621858262000597565b86555062000690565b601f1984166200063a86620003e8565b5f5b8281101562000663578489015182556001820191506020850194506020810190506200063c565b868310156200068357848901516200067f601f89168262000579565b8355505b6001600288020188555050505b505050505050565b61443780620006a65f395ff3fe6080604052600436106101ed575f3560e01c80635c6cdbdd1161010c5780639f181b5e1161009f578063c87b56dd1161006e578063c87b56dd14610724578063d547741f14610760578063e08f563814610788578063e3fb755d1461079e578063e985e9c5146107c6576101ed565b80639f181b5e14610680578063a217fddf146106aa578063a22cb465146106d4578063b88d4fde146106fc576101ed565b806375b238fc116100db57806375b238fc146105c85780637b47ec1a146105f257806391d148541461061a57806395d89b4114610656576101ed565b80635c6cdbdd146104d85780636352211e1461051457806368e8bbb81461055057806370a082311461058c576101ed565b80632d296bf11161018457806345cf084b1161015357806345cf084b1461040557806346e2577a146104425780634bc02da61461046a5780634f64b2be14610494576101ed565b80632d296bf1146103715780632f2ff15d1461038d57806336568abe146103b557806342842e0e146103dd576101ed565b806323b872dd116101c057806323b872dd146102bb5780632406e677146102e3578063248a9ca31461030b57806324c20a3414610347576101ed565b806301ffc9a7146101f157806306fdde031461022d578063081812fc14610257578063095ea7b314610293575b5f80fd5b3480156101fc575f80fd5b5061021760048036038101906102129190612f32565b610802565b6040516102249190612f77565b60405180910390f35b348015610238575f80fd5b50610241610823565b60405161024e919061301a565b60405180910390f35b348015610262575f80fd5b5061027d6004803603810190610278919061306d565b6108b2565b60405161028a91906130d7565b60405180910390f35b34801561029e575f80fd5b506102b960048036038101906102b4919061311a565b6108cd565b005b3480156102c6575f80fd5b506102e160048036038101906102dc9190613158565b6108e3565b005b3480156102ee575f80fd5b50610309600480360381019061030491906131a8565b6109e2565b005b348015610316575f80fd5b50610331600480360381019061032c9190613219565b610ae8565b60405161033e9190613253565b60405180910390f35b348015610352575f80fd5b5061035b610b05565b6040516103689190613253565b60405180910390f35b61038b6004803603810190610386919061306d565b610b29565b005b348015610398575f80fd5b506103b360048036038101906103ae919061326c565b610cac565b005b3480156103c0575f80fd5b506103db60048036038101906103d6919061326c565b610cce565b005b3480156103e8575f80fd5b5061040360048036038101906103fe9190613158565b610d49565b005b348015610410575f80fd5b5061042b6004803603810190610426919061306d565b610d68565b6040516104399291906132b9565b60405180910390f35b34801561044d575f80fd5b50610468600480360381019061046391906132e0565b610d94565b005b348015610475575f80fd5b5061047e610e2a565b60405161048b9190613253565b60405180910390f35b34801561049f575f80fd5b506104ba60048036038101906104b5919061306d565b610e4e565b6040516104cf9998979695949392919061330b565b60405180910390f35b3480156104e3575f80fd5b506104fe60048036038101906104f991906134c9565b610f3d565b60405161050b919061359e565b60405180910390f35b34801561051f575f80fd5b5061053a6004803603810190610535919061306d565b6111fd565b60405161054791906130d7565b60405180910390f35b34801561055b575f80fd5b506105766004803603810190610571919061306d565b61120e565b6040516105839190612f77565b60405180910390f35b348015610597575f80fd5b506105b260048036038101906105ad91906132e0565b6113b6565b6040516105bf919061359e565b60405180910390f35b3480156105d3575f80fd5b506105dc61146c565b6040516105e99190613253565b60405180910390f35b3480156105fd575f80fd5b506106186004803603810190610613919061306d565b611490565b005b348015610625575f80fd5b50610640600480360381019061063b919061326c565b6115fc565b60405161064d9190612f77565b60405180910390f35b348015610661575f80fd5b5061066a611660565b604051610677919061301a565b60405180910390f35b34801561068b575f80fd5b506106946116f0565b6040516106a1919061359e565b60405180910390f35b3480156106b5575f80fd5b506106be6116f6565b6040516106cb9190613253565b60405180910390f35b3480156106df575f80fd5b506106fa60048036038101906106f591906135e1565b6116fc565b005b348015610707575f80fd5b50610722600480360381019061071d91906136bd565b611712565b005b34801561072f575f80fd5b5061074a6004803603810190610745919061306d565b61172f565b604051610757919061301a565b60405180910390f35b34801561076b575f80fd5b506107866004803603810190610781919061326c565b61183a565b005b348015610793575f80fd5b5061079c61185c565b005b3480156107a9575f80fd5b506107c460048036038101906107bf919061306d565b611888565b005b3480156107d1575f80fd5b506107ec60048036038101906107e7919061373d565b611962565b6040516107f99190612f77565b60405180910390f35b5f61080c826119f0565b8061081c575061081b82611ad1565b5b9050919050565b60605f8054610831906137a8565b80601f016020809104026020016040519081016040528092919081815260200182805461085d906137a8565b80156108a85780601f1061087f576101008083540402835291602001916108a8565b820191905f5260205f20905b81548152906001019060200180831161088b57829003601f168201915b5050505050905090565b5f6108bc82611b4a565b506108c682611bd0565b9050919050565b6108df82826108da611c09565b611c10565b5050565b5f73ffffffffffffffffffffffffffffffffffffffff168273ffffffffffffffffffffffffffffffffffffffff1603610953575f6040517f64a0ae9200000000000000000000000000000000000000000000000000000000815260040161094a91906130d7565b60405180910390fd5b5f6109668383610961611c09565b611c22565b90508373ffffffffffffffffffffffffffffffffffffffff168173ffffffffffffffffffffffffffffffffffffffff16146109dc578382826040517f64283d7b0000000000000000000000000000000000000000000000000000000081526004016109d3939291906137d8565b60405180910390fd5b50505050565b3373ffffffffffffffffffffffffffffffffffffffff16610a02836111fd565b73ffffffffffffffffffffffffffffffffffffffff1614610a58576040517f08c379a0000000000000000000000000000000000000000000000000000000008152600401610a4f9061387d565b60405180910390fd5b604051806040016040528060011515815260200182815250600b5f8481526020019081526020015f205f820151815f015f6101000a81548160ff021916908315150217905550602082015181600101559050507f3491649a16c326ca305ed14319c0106222d41417a0c19ec2ced6ec98e61582498282604051610adc92919061389b565b60405180910390a15050565b5f60085f8381526020019081526020015f20600101549050919050565b7f18d9ff454de989bd126b06bd404b47ede75f9e65543e94e8d212f89d7dcbb87c81565b610b31611e2d565b600b5f8281526020019081526020015f205f015f9054906101000a900460ff16610b90576040517f08c379a0000000000000000000000000000000000000000000000000000000008152600401610b879061390c565b60405180910390fd5b600b5f8281526020019081526020015f2060010154341015610be7576040517f08c379a0000000000000000000000000000000000000000000000000000000008152600401610bde90613974565b60405180910390fd5b5f610bf1826111fd565b9050610bfe813384611e73565b610c27348273ffffffffffffffffffffffffffffffffffffffff16611fdb90919063ffffffff16565b5f600b5f8481526020019081526020015f205f015f6101000a81548160ff0219169083151502179055507f1cb6dd09e77cf64c9d88c8e0cf8555ebff062045f2068f22efcbc60905730e718233600b5f8681526020019081526020015f2060010154604051610c9893929190613992565b60405180910390a150610ca96120c4565b50565b610cb582610ae8565b610cbe816120ce565b610cc883836120e2565b50505050565b610cd6611c09565b73ffffffffffffffffffffffffffffffffffffffff168173ffffffffffffffffffffffffffffffffffffffff1614610d3a576040517f6697b23200000000000000000000000000000000000000000000000000000000815260040160405180910390fd5b610d4482826121cc565b505050565b610d6383838360405180602001604052805f815250611712565b505050565b600b602052805f5260405f205f91509050805f015f9054906101000a900460ff16908060010154905082565b610dbe7fa49807205ce4d355092ef5a8a18f56e8913cf4a201fbe287825b095693c21775336115fc565b610dfd576040517f08c379a0000000000000000000000000000000000000000000000000000000008152600401610df490613a11565b60405180910390fd5b610e277f18d9ff454de989bd126b06bd404b47ede75f9e65543e94e8d212f89d7dcbb87c82610cac565b50565b7f9d56108290ea0bc9c5c59c3ad357dca9d1b29ed7f3ae1443bef2fa2159bdf5e881565b600a602052805f5260405f205f91509050805f015490806001015f9054906101000a900473ffffffffffffffffffffffffffffffffffffffff1690806002018054610e98906137a8565b80601f0160208091040260200160405190810160405280929190818152602001828054610ec4906137a8565b8015610f0f5780601f10610ee657610100808354040283529160200191610f0f565b820191905f5260205f20905b815481529060010190602001808311610ef257829003601f168201915b5050505050908060030154908060040154908060050154908060060154908060070154908060080154905089565b5f610f687f18d9ff454de989bd126b06bd404b47ede75f9e65543e94e8d212f89d7dcbb87c336115fc565b610fa7576040517f08c379a0000000000000000000000000000000000000000000000000000000008152600401610f9e90613a79565b60405180910390fd5b838510610fe9576040517f08c379a0000000000000000000000000000000000000000000000000000000008152600401610fe090613b07565b60405180910390fd5b85871061102b576040517f08c379a000000000000000000000000000000000000000000000000000000000815260040161102290613b95565b60405180910390fd5b5f831161106d576040517f08c379a000000000000000000000000000000000000000000000000000000000815260040161106490613c23565b60405180910390fd5b60095f81548092919061107f90613c6e565b91905055505f600954905061109433826122b6565b61109e81846123a9565b6040518061012001604052808281526020013373ffffffffffffffffffffffffffffffffffffffff1681526020018a815260200189815260200188815260200187815260200186815260200185815260200185815250600a5f8381526020019081526020015f205f820151815f01556020820151816001015f6101000a81548173ffffffffffffffffffffffffffffffffffffffff021916908373ffffffffffffffffffffffffffffffffffffffff16021790555060408201518160020190816111689190613e52565b50606082015181600301556080820151816004015560a0820151816005015560c0820151816006015560e0820151816007015561010082015181600801559050507ffc42a938e32d8ae30a3a7f8b15bf9af71b3b7a6731097f02669cbc9c854945c181338b8b8b8b8b8b6040516111e6989796959493929190613f21565b60405180910390a180915050979650505050505050565b5f61120782611b4a565b9050919050565b5f80600a5f8481526020019081526020015f20604051806101200160405290815f8201548152602001600182015f9054906101000a900473ffffffffffffffffffffffffffffffffffffffff1673ffffffffffffffffffffffffffffffffffffffff1673ffffffffffffffffffffffffffffffffffffffff16815260200160028201805461129b906137a8565b80601f01602080910402602001604051908101604052809291908181526020018280546112c7906137a8565b80156113125780601f106112e957610100808354040283529160200191611312565b820191905f5260205f20905b8154815290600101906020018083116112f557829003601f168201915b50505050508152602001600382015481526020016004820154815260200160058201548152602001600682015481526020016007820154815260200160088201548152505090505f81606001514210158015611372575081608001514211155b90505f62015180426113849190613fd1565b90505f8360a00151821015801561139f57508360c001518211155b90508280156113ab5750805b945050505050919050565b5f8073ffffffffffffffffffffffffffffffffffffffff168273ffffffffffffffffffffffffffffffffffffffff1603611427575f6040517f89c62b6400000000000000000000000000000000000000000000000000000000815260040161141e91906130d7565b60405180910390fd5b60035f8373ffffffffffffffffffffffffffffffffffffffff1673ffffffffffffffffffffffffffffffffffffffff1681526020019081526020015f20549050919050565b7fa49807205ce4d355092ef5a8a18f56e8913cf4a201fbe287825b095693c2177581565b6114ba7f9d56108290ea0bc9c5c59c3ad357dca9d1b29ed7f3ae1443bef2fa2159bdf5e8336115fc565b6114f9576040517f08c379a00000000000000000000000000000000000000000000000000000000081526004016114f09061404b565b60405180910390fd5b3373ffffffffffffffffffffffffffffffffffffffff16611519826111fd565b73ffffffffffffffffffffffffffffffffffffffff161461156f576040517f08c379a0000000000000000000000000000000000000000000000000000000008152600401611566906140d9565b60405180910390fd5b6115788161120e565b6115b7576040517f08c379a00000000000000000000000000000000000000000000000000000000081526004016115ae90614167565b60405180910390fd5b6115c081612403565b7f33631bcd0a4d34a7e2c240ab0753d5adfb7284d8ac89dab6876ec785c0cfa0e681336040516115f1929190614185565b60405180910390a150565b5f60085f8481526020019081526020015f205f015f8373ffffffffffffffffffffffffffffffffffffffff1673ffffffffffffffffffffffffffffffffffffffff1681526020019081526020015f205f9054906101000a900460ff16905092915050565b60606001805461166f906137a8565b80601f016020809104026020016040519081016040528092919081815260200182805461169b906137a8565b80156116e65780601f106116bd576101008083540402835291602001916116e6565b820191905f5260205f20905b8154815290600101906020018083116116c957829003601f168201915b5050505050905090565b60095481565b5f801b81565b61170e611707611c09565b8383612485565b5050565b61171d8484846108e3565b611729848484846125ee565b50505050565b606061173a82611b4a565b505f60065f8481526020019081526020015f208054611758906137a8565b80601f0160208091040260200160405190810160405280929190818152602001828054611784906137a8565b80156117cf5780601f106117a6576101008083540402835291602001916117cf565b820191905f5260205f20905b8154815290600101906020018083116117b257829003601f168201915b505050505090505f6117df6127a0565b90505f8151036117f3578192505050611835565b5f8251111561182757808260405160200161180f9291906141e6565b60405160208183030381529060405292505050611835565b611830846127b6565b925050505b919050565b61184382610ae8565b61184c816120ce565b61185683836121cc565b50505050565b6118867f9d56108290ea0bc9c5c59c3ad357dca9d1b29ed7f3ae1443bef2fa2159bdf5e833610cac565b565b3373ffffffffffffffffffffffffffffffffffffffff166118a8826111fd565b73ffffffffffffffffffffffffffffffffffffffff16146118fe576040517f08c379a00000000000000000000000000000000000000000000000000000000081526004016118f590614279565b60405180910390fd5b5f600b5f8381526020019081526020015f205f015f6101000a81548160ff0219169083151502179055507f9b7b4b4e6f50c301ea30ddefa95949fc9175bdb84ce35fd823bc4486d879ef4a81604051611957919061359e565b60405180910390a150565b5f60055f8473ffffffffffffffffffffffffffffffffffffffff1673ffffffffffffffffffffffffffffffffffffffff1681526020019081526020015f205f8373ffffffffffffffffffffffffffffffffffffffff1673ffffffffffffffffffffffffffffffffffffffff1681526020019081526020015f205f9054906101000a900460ff16905092915050565b5f7f80ac58cd000000000000000000000000000000000000000000000000000000007bffffffffffffffffffffffffffffffffffffffffffffffffffffffff1916827bffffffffffffffffffffffffffffffffffffffffffffffffffffffff19161480611aba57507f5b5e139f000000000000000000000000000000000000000000000000000000007bffffffffffffffffffffffffffffffffffffffffffffffffffffffff1916827bffffffffffffffffffffffffffffffffffffffffffffffffffffffff1916145b80611aca5750611ac98261281c565b5b9050919050565b5f7f7965db0b000000000000000000000000000000000000000000000000000000007bffffffffffffffffffffffffffffffffffffffffffffffffffffffff1916827bffffffffffffffffffffffffffffffffffffffffffffffffffffffff19161480611b435750611b4282612885565b5b9050919050565b5f80611b55836128e5565b90505f73ffffffffffffffffffffffffffffffffffffffff168173ffffffffffffffffffffffffffffffffffffffff1603611bc757826040517f7e273289000000000000000000000000000000000000000000000000000000008152600401611bbe919061359e565b60405180910390fd5b80915050919050565b5f60045f8381526020019081526020015f205f9054906101000a900473ffffffffffffffffffffffffffffffffffffffff169050919050565b5f33905090565b611c1d838383600161291e565b505050565b5f80611c2d846128e5565b90505f73ffffffffffffffffffffffffffffffffffffffff168373ffffffffffffffffffffffffffffffffffffffff1614611c6e57611c6d818486612add565b5b5f73ffffffffffffffffffffffffffffffffffffffff168173ffffffffffffffffffffffffffffffffffffffff1614611cf957611cad5f855f8061291e565b600160035f8373ffffffffffffffffffffffffffffffffffffffff1673ffffffffffffffffffffffffffffffffffffffff1681526020019081526020015f205f82825403925050819055505b5f73ffffffffffffffffffffffffffffffffffffffff168573ffffffffffffffffffffffffffffffffffffffff1614611d7857600160035f8773ffffffffffffffffffffffffffffffffffffffff1673ffffffffffffffffffffffffffffffffffffffff1681526020019081526020015f205f82825401925050819055505b8460025f8681526020019081526020015f205f6101000a81548173ffffffffffffffffffffffffffffffffffffffff021916908373ffffffffffffffffffffffffffffffffffffffff160217905550838573ffffffffffffffffffffffffffffffffffffffff168273ffffffffffffffffffffffffffffffffffffffff167fddf252ad1be2c89b69c2b068fc378daa952ba7f163c4a11628f55a4df523b3ef60405160405180910390a4809150509392505050565b600260075403611e69576040517f3ee5aeb500000000000000000000000000000000000000000000000000000000815260040160405180910390fd5b6002600781905550565b5f73ffffffffffffffffffffffffffffffffffffffff168273ffffffffffffffffffffffffffffffffffffffff1603611ee3575f6040517f64a0ae92000000000000000000000000000000000000000000000000000000008152600401611eda91906130d7565b60405180910390fd5b5f611eef83835f611c22565b90505f73ffffffffffffffffffffffffffffffffffffffff168173ffffffffffffffffffffffffffffffffffffffff1603611f6157816040517f7e273289000000000000000000000000000000000000000000000000000000008152600401611f58919061359e565b60405180910390fd5b8373ffffffffffffffffffffffffffffffffffffffff168173ffffffffffffffffffffffffffffffffffffffff1614611fd5578382826040517f64283d7b000000000000000000000000000000000000000000000000000000008152600401611fcc939291906137d8565b60405180910390fd5b50505050565b8047101561202057306040517fcd78605900000000000000000000000000000000000000000000000000000000815260040161201791906130d7565b60405180910390fd5b5f8273ffffffffffffffffffffffffffffffffffffffff1682604051612045906142c4565b5f6040518083038185875af1925050503d805f811461207f576040519150601f19603f3d011682016040523d82523d5f602084013e612084565b606091505b50509050806120bf576040517f1425ea4200000000000000000000000000000000000000000000000000000000815260040160405180910390fd5b505050565b6001600781905550565b6120df816120da611c09565b612ba0565b50565b5f6120ed83836115fc565b6121c257600160085f8581526020019081526020015f205f015f8473ffffffffffffffffffffffffffffffffffffffff1673ffffffffffffffffffffffffffffffffffffffff1681526020019081526020015f205f6101000a81548160ff02191690831515021790555061215f611c09565b73ffffffffffffffffffffffffffffffffffffffff168273ffffffffffffffffffffffffffffffffffffffff16847f2f8788117e7eff1d82e926ec794901d17c78024a50270940304540a733656f0d60405160405180910390a4600190506121c6565b5f90505b92915050565b5f6121d783836115fc565b156122ac575f60085f8581526020019081526020015f205f015f8473ffffffffffffffffffffffffffffffffffffffff1673ffffffffffffffffffffffffffffffffffffffff1681526020019081526020015f205f6101000a81548160ff021916908315150217905550612249611c09565b73ffffffffffffffffffffffffffffffffffffffff168273ffffffffffffffffffffffffffffffffffffffff16847ff6391f5c32d9c69d2a47ea670b442974b53935d1edc7fd64eb21e047a839171b60405160405180910390a4600190506122b0565b5f90505b92915050565b5f73ffffffffffffffffffffffffffffffffffffffff168273ffffffffffffffffffffffffffffffffffffffff1603612326575f6040517f64a0ae9200000000000000000000000000000000000000000000000000000000815260040161231d91906130d7565b60405180910390fd5b5f61233283835f611c22565b90505f73ffffffffffffffffffffffffffffffffffffffff168173ffffffffffffffffffffffffffffffffffffffff16146123a4575f6040517f73c6ac6e00000000000000000000000000000000000000000000000000000000815260040161239b91906130d7565b60405180910390fd5b505050565b8060065f8481526020019081526020015f2090816123c79190613e52565b507ff8e1a15aba9398e019f0b49df1a4fde98ee17ae345cb5f6b5e2c27f5033e8ce7826040516123f7919061359e565b60405180910390a15050565b5f61240f5f835f611c22565b90505f73ffffffffffffffffffffffffffffffffffffffff168173ffffffffffffffffffffffffffffffffffffffff160361248157816040517f7e273289000000000000000000000000000000000000000000000000000000008152600401612478919061359e565b60405180910390fd5b5050565b5f73ffffffffffffffffffffffffffffffffffffffff168273ffffffffffffffffffffffffffffffffffffffff16036124f557816040517f5b08ba180000000000000000000000000000000000000000000000000000000081526004016124ec91906130d7565b60405180910390fd5b8060055f8573ffffffffffffffffffffffffffffffffffffffff1673ffffffffffffffffffffffffffffffffffffffff1681526020019081526020015f205f8473ffffffffffffffffffffffffffffffffffffffff1673ffffffffffffffffffffffffffffffffffffffff1681526020019081526020015f205f6101000a81548160ff0219169083151502179055508173ffffffffffffffffffffffffffffffffffffffff168373ffffffffffffffffffffffffffffffffffffffff167f17307eab39ab6107e8899845ad3d59bd9653f200f220920489ca2b5937696c31836040516125e19190612f77565b60405180910390a3505050565b5f8373ffffffffffffffffffffffffffffffffffffffff163b111561279a578273ffffffffffffffffffffffffffffffffffffffff1663150b7a02612631611c09565b8685856040518563ffffffff1660e01b8152600401612653949392919061432a565b6020604051808303815f875af192505050801561268e57506040513d601f19601f8201168201806040525081019061268b9190614388565b60015b61270f573d805f81146126bc576040519150601f19603f3d011682016040523d82523d5f602084013e6126c1565b606091505b505f81510361270757836040517f64a0ae920000000000000000000000000000000000000000000000000000000081526004016126fe91906130d7565b60405180910390fd5b805181602001fd5b63150b7a0260e01b7bffffffffffffffffffffffffffffffffffffffffffffffffffffffff1916817bffffffffffffffffffffffffffffffffffffffffffffffffffffffff19161461279857836040517f64a0ae9200000000000000000000000000000000000000000000000000000000815260040161278f91906130d7565b60405180910390fd5b505b50505050565b606060405180602001604052805f815250905090565b60606127c182611b4a565b505f6127cb6127a0565b90505f8151116127e95760405180602001604052805f815250612814565b806127f384612bf1565b6040516020016128049291906141e6565b6040516020818303038152906040525b915050919050565b5f7f01ffc9a7000000000000000000000000000000000000000000000000000000007bffffffffffffffffffffffffffffffffffffffffffffffffffffffff1916827bffffffffffffffffffffffffffffffffffffffffffffffffffffffff1916149050919050565b5f634906490660e01b7bffffffffffffffffffffffffffffffffffffffffffffffffffffffff1916827bffffffffffffffffffffffffffffffffffffffffffffffffffffffff191614806128de57506128dd826119f0565b5b9050919050565b5f60025f8381526020019081526020015f205f9054906101000a900473ffffffffffffffffffffffffffffffffffffffff169050919050565b808061295657505f73ffffffffffffffffffffffffffffffffffffffff168273ffffffffffffffffffffffffffffffffffffffff1614155b15612a88575f61296584611b4a565b90505f73ffffffffffffffffffffffffffffffffffffffff168373ffffffffffffffffffffffffffffffffffffffff16141580156129cf57508273ffffffffffffffffffffffffffffffffffffffff168173ffffffffffffffffffffffffffffffffffffffff1614155b80156129e257506129e08184611962565b155b15612a2457826040517fa9fbf51f000000000000000000000000000000000000000000000000000000008152600401612a1b91906130d7565b60405180910390fd5b8115612a8657838573ffffffffffffffffffffffffffffffffffffffff168273ffffffffffffffffffffffffffffffffffffffff167f8c5be1e5ebec7d5bd14f71427d1e84f3dd0314c0f7b2291e5b200ac8c7c3b92560405160405180910390a45b505b8360045f8581526020019081526020015f205f6101000a81548173ffffffffffffffffffffffffffffffffffffffff021916908373ffffffffffffffffffffffffffffffffffffffff16021790555050505050565b612ae8838383612cbb565b612b9b575f73ffffffffffffffffffffffffffffffffffffffff168373ffffffffffffffffffffffffffffffffffffffff1603612b5c57806040517f7e273289000000000000000000000000000000000000000000000000000000008152600401612b53919061359e565b60405180910390fd5b81816040517f177e802f000000000000000000000000000000000000000000000000000000008152600401612b929291906143b3565b60405180910390fd5b505050565b612baa82826115fc565b612bed5780826040517fe2517d3f000000000000000000000000000000000000000000000000000000008152600401612be49291906143da565b60405180910390fd5b5050565b60605f6001612bff84612d7b565b0190505f8167ffffffffffffffff811115612c1d57612c1c6133a5565b5b6040519080825280601f01601f191660200182016040528015612c4f5781602001600182028036833780820191505090505b5090505f82602001820190505b600115612cb0578080600190039150507f3031323334353637383961626364656600000000000000000000000000000000600a86061a8153600a8581612ca557612ca4613fa4565b5b0494505f8503612c5c575b819350505050919050565b5f8073ffffffffffffffffffffffffffffffffffffffff168373ffffffffffffffffffffffffffffffffffffffff1614158015612d7257508273ffffffffffffffffffffffffffffffffffffffff168473ffffffffffffffffffffffffffffffffffffffff161480612d335750612d328484611962565b5b80612d7157508273ffffffffffffffffffffffffffffffffffffffff16612d5983611bd0565b73ffffffffffffffffffffffffffffffffffffffff16145b5b90509392505050565b5f805f90507a184f03e93ff9f4daa797ed6e38ed64bf6a1f0100000000000000008310612dd7577a184f03e93ff9f4daa797ed6e38ed64bf6a1f0100000000000000008381612dcd57612dcc613fa4565b5b0492506040810190505b6d04ee2d6d415b85acef81000000008310612e14576d04ee2d6d415b85acef81000000008381612e0a57612e09613fa4565b5b0492506020810190505b662386f26fc100008310612e4357662386f26fc100008381612e3957612e38613fa4565b5b0492506010810190505b6305f5e1008310612e6c576305f5e1008381612e6257612e61613fa4565b5b0492506008810190505b6127108310612e91576127108381612e8757612e86613fa4565b5b0492506004810190505b60648310612eb45760648381612eaa57612ea9613fa4565b5b0492506002810190505b600a8310612ec3576001810190505b80915050919050565b5f604051905090565b5f80fd5b5f80fd5b5f7fffffffff0000000000000000000000000000000000000000000000000000000082169050919050565b612f1181612edd565b8114612f1b575f80fd5b50565b5f81359050612f2c81612f08565b92915050565b5f60208284031215612f4757612f46612ed5565b5b5f612f5484828501612f1e565b91505092915050565b5f8115159050919050565b612f7181612f5d565b82525050565b5f602082019050612f8a5f830184612f68565b92915050565b5f81519050919050565b5f82825260208201905092915050565b5f5b83811015612fc7578082015181840152602081019050612fac565b5f8484015250505050565b5f601f19601f8301169050919050565b5f612fec82612f90565b612ff68185612f9a565b9350613006818560208601612faa565b61300f81612fd2565b840191505092915050565b5f6020820190508181035f8301526130328184612fe2565b905092915050565b5f819050919050565b61304c8161303a565b8114613056575f80fd5b50565b5f8135905061306781613043565b92915050565b5f6020828403121561308257613081612ed5565b5b5f61308f84828501613059565b91505092915050565b5f73ffffffffffffffffffffffffffffffffffffffff82169050919050565b5f6130c182613098565b9050919050565b6130d1816130b7565b82525050565b5f6020820190506130ea5f8301846130c8565b92915050565b6130f9816130b7565b8114613103575f80fd5b50565b5f81359050613114816130f0565b92915050565b5f80604083850312156131305761312f612ed5565b5b5f61313d85828601613106565b925050602061314e85828601613059565b9150509250929050565b5f805f6060848603121561316f5761316e612ed5565b5b5f61317c86828701613106565b935050602061318d86828701613106565b925050604061319e86828701613059565b9150509250925092565b5f80604083850312156131be576131bd612ed5565b5b5f6131cb85828601613059565b92505060206131dc85828601613059565b9150509250929050565b5f819050919050565b6131f8816131e6565b8114613202575f80fd5b50565b5f81359050613213816131ef565b92915050565b5f6020828403121561322e5761322d612ed5565b5b5f61323b84828501613205565b91505092915050565b61324d816131e6565b82525050565b5f6020820190506132665f830184613244565b92915050565b5f806040838503121561328257613281612ed5565b5b5f61328f85828601613205565b92505060206132a085828601613106565b9150509250929050565b6132b38161303a565b82525050565b5f6040820190506132cc5f830185612f68565b6132d960208301846132aa565b9392505050565b5f602082840312156132f5576132f4612ed5565b5b5f61330284828501613106565b91505092915050565b5f6101208201905061331f5f83018c6132aa565b61332c602083018b6130c8565b818103604083015261333e818a612fe2565b905061334d60608301896132aa565b61335a60808301886132aa565b61336760a08301876132aa565b61337460c08301866132aa565b61338160e08301856132aa565b61338f6101008301846132aa565b9a9950505050505050505050565b5f80fd5b5f80fd5b7f4e487b71000000000000000000000000000000000000000000000000000000005f52604160045260245ffd5b6133db82612fd2565b810181811067ffffffffffffffff821117156133fa576133f96133a5565b5b80604052505050565b5f61340c612ecc565b905061341882826133d2565b919050565b5f67ffffffffffffffff821115613437576134366133a5565b5b61344082612fd2565b9050602081019050919050565b828183375f83830152505050565b5f61346d6134688461341d565b613403565b905082815260208101848484011115613489576134886133a1565b5b61349484828561344d565b509392505050565b5f82601f8301126134b0576134af61339d565b5b81356134c084826020860161345b565b91505092915050565b5f805f805f805f60e0888a0312156134e4576134e3612ed5565b5b5f88013567ffffffffffffffff81111561350157613500612ed9565b5b61350d8a828b0161349c565b975050602061351e8a828b01613059565b965050604061352f8a828b01613059565b95505060606135408a828b01613059565b94505060806135518a828b01613059565b93505060a06135628a828b01613059565b92505060c088013567ffffffffffffffff81111561358357613582612ed9565b5b61358f8a828b0161349c565b91505092959891949750929550565b5f6020820190506135b15f8301846132aa565b92915050565b6135c081612f5d565b81146135ca575f80fd5b50565b5f813590506135db816135b7565b92915050565b5f80604083850312156135f7576135f6612ed5565b5b5f61360485828601613106565b9250506020613615858286016135cd565b9150509250929050565b5f67ffffffffffffffff821115613639576136386133a5565b5b61364282612fd2565b9050602081019050919050565b5f61366161365c8461361f565b613403565b90508281526020810184848401111561367d5761367c6133a1565b5b61368884828561344d565b509392505050565b5f82601f8301126136a4576136a361339d565b5b81356136b484826020860161364f565b91505092915050565b5f805f80608085870312156136d5576136d4612ed5565b5b5f6136e287828801613106565b94505060206136f387828801613106565b935050604061370487828801613059565b925050606085013567ffffffffffffffff81111561372557613724612ed9565b5b61373187828801613690565b91505092959194509250565b5f806040838503121561375357613752612ed5565b5b5f61376085828601613106565b925050602061377185828601613106565b9150509250929050565b7f4e487b71000000000000000000000000000000000000000000000000000000005f52602260045260245ffd5b5f60028204905060018216806137bf57607f821691505b6020821081036137d2576137d161377b565b5b50919050565b5f6060820190506137eb5f8301866130c8565b6137f860208301856132aa565b61380560408301846130c8565b949350505050565b7f596f75206d757374206f776e2074686520746f6b656e20746f206c69737420695f8201527f7420666f722073616c652e000000000000000000000000000000000000000000602082015250565b5f613867602b83612f9a565b91506138728261380d565b604082019050919050565b5f6020820190508181035f8301526138948161385b565b9050919050565b5f6040820190506138ae5f8301856132aa565b6138bb60208301846132aa565b9392505050565b7f5468697320746f6b656e206973206e6f7420666f722073616c652e00000000005f82015250565b5f6138f6601b83612f9a565b9150613901826138c2565b602082019050919050565b5f6020820190508181035f830152613923816138ea565b9050919050565b7f496e73756666696369656e742066756e64732073656e742e00000000000000005f82015250565b5f61395e601883612f9a565b91506139698261392a565b602082019050919050565b5f6020820190508181035f83015261398b81613952565b9050919050565b5f6060820190506139a55f8301866132aa565b6139b260208301856130c8565b6139bf60408301846132aa565b949350505050565b7f43616c6c6572206973206e6f7420616e2061646d696e000000000000000000005f82015250565b5f6139fb601683612f9a565b9150613a06826139c7565b602082019050919050565b5f6020820190508181035f830152613a28816139ef565b9050919050565b7f43616c6c6572206973206e6f7420612070726f766964657200000000000000005f82015250565b5f613a63601883612f9a565b9150613a6e82613a2f565b602082019050919050565b5f6020820190508181035f830152613a9081613a57565b9050919050565b7f53746172742074696d65206d757374206265206265666f726520656e642074695f8201527f6d652e0000000000000000000000000000000000000000000000000000000000602082015250565b5f613af1602383612f9a565b9150613afc82613a97565b604082019050919050565b5f6020820190508181035f830152613b1e81613ae5565b9050919050565b7f56616c69642066726f6d2064617465206d757374206265206265666f726520765f8201527f616c696420746f20646174652e00000000000000000000000000000000000000602082015250565b5f613b7f602d83612f9a565b9150613b8a82613b25565b604082019050919050565b5f6020820190508181035f830152613bac81613b73565b9050919050565b7f416d6f756e74206f6620656e65726779206d75737420626520677265617465725f8201527f207468616e2030206b572e000000000000000000000000000000000000000000602082015250565b5f613c0d602b83612f9a565b9150613c1882613bb3565b604082019050919050565b5f6020820190508181035f830152613c3a81613c01565b9050919050565b7f4e487b71000000000000000000000000000000000000000000000000000000005f52601160045260245ffd5b5f613c788261303a565b91507fffffffffffffffffffffffffffffffffffffffffffffffffffffffffffffffff8203613caa57613ca9613c41565b5b600182019050919050565b5f819050815f5260205f209050919050565b5f6020601f8301049050919050565b5f82821b905092915050565b5f60088302613d117fffffffffffffffffffffffffffffffffffffffffffffffffffffffffffffffff82613cd6565b613d1b8683613cd6565b95508019841693508086168417925050509392505050565b5f819050919050565b5f613d56613d51613d4c8461303a565b613d33565b61303a565b9050919050565b5f819050919050565b613d6f83613d3c565b613d83613d7b82613d5d565b848454613ce2565b825550505050565b5f90565b613d97613d8b565b613da2818484613d66565b505050565b5b81811015613dc557613dba5f82613d8f565b600181019050613da8565b5050565b601f821115613e0a57613ddb81613cb5565b613de484613cc7565b81016020851015613df3578190505b613e07613dff85613cc7565b830182613da7565b50505b505050565b5f82821c905092915050565b5f613e2a5f1984600802613e0f565b1980831691505092915050565b5f613e428383613e1b565b9150826002028217905092915050565b613e5b82612f90565b67ffffffffffffffff811115613e7457613e736133a5565b5b613e7e82546137a8565b613e89828285613dc9565b5f60209050601f831160018114613eba575f8415613ea8578287015190505b613eb28582613e37565b865550613f19565b601f198416613ec886613cb5565b5f5b82811015613eef57848901518255600182019150602085019450602081019050613eca565b86831015613f0c5784890151613f08601f891682613e1b565b8355505b6001600288020188555050505b505050505050565b5f61010082019050613f355f83018b6132aa565b613f42602083018a6130c8565b8181036040830152613f548189612fe2565b9050613f6360608301886132aa565b613f7060808301876132aa565b613f7d60a08301866132aa565b613f8a60c08301856132aa565b613f9760e08301846132aa565b9998505050505050505050565b7f4e487b71000000000000000000000000000000000000000000000000000000005f52601260045260245ffd5b5f613fdb8261303a565b9150613fe68361303a565b925082613ff657613ff5613fa4565b5b828206905092915050565b7f43616c6c6572206973206e6f74206120636f6e73756d657200000000000000005f82015250565b5f614035601883612f9a565b915061404082614001565b602082019050919050565b5f6020820190508181035f83015261406281614029565b9050919050565b7f596f75206d757374206f776e2074686520746f6b656e20746f206275726e20695f8201527f742e000000000000000000000000000000000000000000000000000000000000602082015250565b5f6140c3602283612f9a565b91506140ce82614069565b604082019050919050565b5f6020820190508181035f8301526140f0816140b7565b9050919050565b7f54686520746f6b656e206973206e6f742077697468696e206974732076616c695f8201527f6420757361676520706572696f64206f722074696d652077696e646f772e0000602082015250565b5f614151603e83612f9a565b915061415c826140f7565b604082019050919050565b5f6020820190508181035f83015261417e81614145565b9050919050565b5f6040820190506141985f8301856132aa565b6141a560208301846130c8565b9392505050565b5f81905092915050565b5f6141c082612f90565b6141ca81856141ac565b93506141da818560208601612faa565b80840191505092915050565b5f6141f182856141b6565b91506141fd82846141b6565b91508190509392505050565b7f596f75206d757374206f776e2074686520746f6b656e20746f207769746864725f8201527f61772069742066726f6d2073616c652e00000000000000000000000000000000602082015250565b5f614263603083612f9a565b915061426e82614209565b604082019050919050565b5f6020820190508181035f83015261429081614257565b9050919050565b5f81905092915050565b50565b5f6142af5f83614297565b91506142ba826142a1565b5f82019050919050565b5f6142ce826142a4565b9150819050919050565b5f81519050919050565b5f82825260208201905092915050565b5f6142fc826142d8565b61430681856142e2565b9350614316818560208601612faa565b61431f81612fd2565b840191505092915050565b5f60808201905061433d5f8301876130c8565b61434a60208301866130c8565b61435760408301856132aa565b818103606083015261436981846142f2565b905095945050505050565b5f8151905061438281612f08565b92915050565b5f6020828403121561439d5761439c612ed5565b5b5f6143aa84828501614374565b91505092915050565b5f6040820190506143c65f8301856130c8565b6143d360208301846132aa565b9392505050565b5f6040820190506143ed5f8301856130c8565b6143fa6020830184613244565b939250505056fea2646970667358221220efb65733046af22cc84a2cbdab23e89b2520e482523c894e3f3cda813b03350c64736f6c63430008150033",
  "immutableReferences": {},
  "source": "// SPDX-License-Identifier: MIT\npragma solidity ^0.8.0;\n\nimport \"@openzeppelin/contracts/token/ERC721/extensions/ERC721URIStorage.sol\";\nimport \"@openzeppelin/contracts/utils/ReentrancyGuard.sol\";\nimport \"@openzeppelin/contracts/access/AccessControl.sol\";\nimport \"@openzeppelin/contracts/utils/Address.sol\";\n\ncontract EnergyTradeHub is ERC721URIStorage, ReentrancyGuard, AccessControl {\n    using Address for address payable;\n\n    bytes32 public constant ADMIN_ROLE = keccak256(\"ADMIN_ROLE\");\n    bytes32 public constant PROVIDER_ROLE = keccak256(\"PROVIDER_ROLE\");\n    bytes32 public constant CONSUMER_ROLE = keccak256(\"CONSUMER_ROLE\");\n\n    uint256 public tokenCount = 0;\n\n    struct EnergyToken {\n        uint256 tokenId;\n        address owner;\n        string energyType;\n        uint256 validFrom;\n        uint256 validTo;\n        uint256 startTime;\n        uint256 endTime;\n        uint256 amountInKw;\n        uint256 balanceInKw;\n    }\n\n    struct TokenSale {\n        bool isForSale;\n        uint256 price;\n    }\n\n    mapping(uint256 => EnergyToken) public tokens;\n    mapping(uint256 => TokenSale) public tokenSales;\n\n    event TokenCreated(uint256 tokenId, address owner, string energyType, uint256 validFrom, uint256 validTo, uint256 startTime, uint256 endTime, uint256 amountInKw);\n    event TokenListedForSale(uint256 tokenId, uint256 price);\n    event TokenSaleWithdrawn(uint256 tokenId);\n    event TokenPurchased(uint256 tokenId, address buyer, uint256 price);\n    event TokenBurned(uint256 tokenId, address burner);\n\n    constructor() ERC721(\"EnergyTradeHubToken\", \"ETHB\") {\n        _grantRole(ADMIN_ROLE, msg.sender);\n        _setRoleAdmin(PROVIDER_ROLE, ADMIN_ROLE);\n        _setRoleAdmin(CONSUMER_ROLE, CONSUMER_ROLE);\n    }\n\n    function supportsInterface(bytes4 interfaceId) public view virtual override(ERC721URIStorage, AccessControl) returns (bool) {\n        return ERC721.supportsInterface(interfaceId) || AccessControl.supportsInterface(interfaceId);\n    }\n\n\n\n    function registerAsConsumer() public {\n        grantRole(CONSUMER_ROLE, msg.sender);\n    }\n\n    function addProvider(address provider) public {\n        require(hasRole(ADMIN_ROLE, msg.sender), \"Caller is not an admin\");\n        grantRole(PROVIDER_ROLE, provider);\n    }\n    \n    modifier onlyProvider() {\n        require(hasRole(PROVIDER_ROLE, msg.sender), \"Caller is not a provider\");\n        _;\n    }\n\n    function createToken(string memory energyType, uint256 validFrom, uint256 validTo, uint256 startTime, uint256 endTime, uint256 amountInKw, string memory tokenURI) public onlyProvider returns (uint256) {\n        require(startTime < endTime, \"Start time must be before end time.\");\n        require(validFrom < validTo, \"Valid from date must be before valid to date.\");\n        require(amountInKw > 0, \"Amount of energy must be greater than 0 kW.\");\n\n        tokenCount++;\n        uint256 newTokenId = tokenCount;\n        _mint(msg.sender, newTokenId);\n        _setTokenURI(newTokenId, tokenURI);\n\n        tokens[newTokenId] = EnergyToken(newTokenId, msg.sender, energyType, validFrom, validTo, startTime, endTime, amountInKw, amountInKw);\n\n        emit TokenCreated(newTokenId, msg.sender, energyType, validFrom, validTo, startTime, endTime, amountInKw);\n        return newTokenId;\n    }\n\n    function listTokenForSale(uint256 tokenId, uint256 price) public {\n        require(ownerOf(tokenId) == msg.sender, \"You must own the token to list it for sale.\");\n        tokenSales[tokenId] = TokenSale(true, price);\n        emit TokenListedForSale(tokenId, price);\n    }\n\n    function withdrawTokenFromSale(uint256 tokenId) public {\n        require(ownerOf(tokenId) == msg.sender, \"You must own the token to withdraw it from sale.\");\n        tokenSales[tokenId].isForSale = false;\n        emit TokenSaleWithdrawn(tokenId);\n    }\n\n    function buyToken(uint256 tokenId) public payable nonReentrant {\n        require(tokenSales[tokenId].isForSale, \"This token is not for sale.\");\n        require(msg.value >= tokenSales[tokenId].price, \"Insufficient funds sent.\");\n        address seller = ownerOf(tokenId);\n\n        _transfer(seller, msg.sender, tokenId);\n        payable(seller).sendValue(msg.value);\n        tokenSales[tokenId].isForSale = false;\n\n        emit TokenPurchased(tokenId, msg.sender, tokenSales[tokenId].price);\n    }\n\n    function burnToken(uint256 tokenId) public {\n        require(hasRole(CONSUMER_ROLE, msg.sender), \"Caller is not a consumer\");\n        require(ownerOf(tokenId) == msg.sender, \"You must own the token to burn it.\");\n        require(isWithinValidPeriod(tokenId), \"The token is not within its valid usage period or time window.\");\n\n        _burn(tokenId);\n        emit TokenBurned(tokenId, msg.sender);\n    }\n\n    function isWithinValidPeriod(uint256 tokenId) public view returns (bool) {\n        EnergyToken memory token = tokens[tokenId];\n\n        // Ensure the current timestamp is within the overall valid period\n        bool isWithinDate = block.timestamp >= token.validFrom && block.timestamp <= token.validTo;\n\n        // Calculate the current time within the day in seconds\n        uint256 timeOfDay = (block.timestamp % 86400);\n\n        // Ensure the current time is within the valid daily time window\n        bool isWithinTime = timeOfDay >= token.startTime && timeOfDay <= token.endTime;\n\n        return isWithinDate && isWithinTime;\n    }\n}\n",
  "sourcePath": "/Users/wlademyr.junior/code/energy/contracts/Energy.sol",
  "compiler": {
    "name": "solc",
    "version": "0.8.21+commit.d9974bed.Emscripten.clang"
  },
  "schemaVersion": "3.4.16",
  "updatedAt": "2024-03-21T01:05:16.401Z",
  "networkType": "ethereum",
  "devdoc": {
    "errors": {
      "AccessControlBadConfirmation()": [
        {
          "details": "The caller of a function is not the expected one. NOTE: Don't confuse with {AccessControlUnauthorizedAccount}."
        }
      ],
      "AccessControlUnauthorizedAccount(address,bytes32)": [
        {
          "details": "The `account` is missing a role."
        }
      ],
      "AddressInsufficientBalance(address)": [
        {
          "details": "The ETH balance of the account is not enough to perform the operation."
        }
      ],
      "ERC721IncorrectOwner(address,uint256,address)": [
        {
          "details": "Indicates an error related to the ownership over a particular token. Used in transfers.",
          "params": {
            "owner": "Address of the current owner of a token.",
            "sender": "Address whose tokens are being transferred.",
            "tokenId": "Identifier number of a token."
          }
        }
      ],
      "ERC721InsufficientApproval(address,uint256)": [
        {
          "details": "Indicates a failure with the `operator`s approval. Used in transfers.",
          "params": {
            "operator": "Address that may be allowed to operate on tokens without being their owner.",
            "tokenId": "Identifier number of a token."
          }
        }
      ],
      "ERC721InvalidApprover(address)": [
        {
          "details": "Indicates a failure with the `approver` of a token to be approved. Used in approvals.",
          "params": {
            "approver": "Address initiating an approval operation."
          }
        }
      ],
      "ERC721InvalidOperator(address)": [
        {
          "details": "Indicates a failure with the `operator` to be approved. Used in approvals.",
          "params": {
            "operator": "Address that may be allowed to operate on tokens without being their owner."
          }
        }
      ],
      "ERC721InvalidOwner(address)": [
        {
          "details": "Indicates that an address can't be an owner. For example, `address(0)` is a forbidden owner in EIP-20. Used in balance queries.",
          "params": {
            "owner": "Address of the current owner of a token."
          }
        }
      ],
      "ERC721InvalidReceiver(address)": [
        {
          "details": "Indicates a failure with the token `receiver`. Used in transfers.",
          "params": {
            "receiver": "Address to which tokens are being transferred."
          }
        }
      ],
      "ERC721InvalidSender(address)": [
        {
          "details": "Indicates a failure with the token `sender`. Used in transfers.",
          "params": {
            "sender": "Address whose tokens are being transferred."
          }
        }
      ],
      "ERC721NonexistentToken(uint256)": [
        {
          "details": "Indicates a `tokenId` whose `owner` is the zero address.",
          "params": {
            "tokenId": "Identifier number of a token."
          }
        }
      ],
      "FailedInnerCall()": [
        {
          "details": "A call to an address target failed. The target may have reverted."
        }
      ],
      "ReentrancyGuardReentrantCall()": [
        {
          "details": "Unauthorized reentrant call."
        }
      ]
    },
    "events": {
      "Approval(address,address,uint256)": {
        "details": "Emitted when `owner` enables `approved` to manage the `tokenId` token."
      },
      "ApprovalForAll(address,address,bool)": {
        "details": "Emitted when `owner` enables or disables (`approved`) `operator` to manage all of its assets."
      },
      "BatchMetadataUpdate(uint256,uint256)": {
        "details": "This event emits when the metadata of a range of tokens is changed. So that the third-party platforms such as NFT market could timely update the images and related attributes of the NFTs."
      },
      "MetadataUpdate(uint256)": {
        "details": "This event emits when the metadata of a token is changed. So that the third-party platforms such as NFT market could timely update the images and related attributes of the NFT."
      },
      "RoleAdminChanged(bytes32,bytes32,bytes32)": {
        "details": "Emitted when `newAdminRole` is set as ``role``'s admin role, replacing `previousAdminRole` `DEFAULT_ADMIN_ROLE` is the starting admin for all roles, despite {RoleAdminChanged} not being emitted signaling this."
      },
      "RoleGranted(bytes32,address,address)": {
        "details": "Emitted when `account` is granted `role`. `sender` is the account that originated the contract call, an admin role bearer except when using {AccessControl-_setupRole}."
      },
      "RoleRevoked(bytes32,address,address)": {
        "details": "Emitted when `account` is revoked `role`. `sender` is the account that originated the contract call:   - if using `revokeRole`, it is the admin role bearer   - if using `renounceRole`, it is the role bearer (i.e. `account`)"
      },
      "Transfer(address,address,uint256)": {
        "details": "Emitted when `tokenId` token is transferred from `from` to `to`."
      }
    },
    "kind": "dev",
    "methods": {
      "approve(address,uint256)": {
        "details": "See {IERC721-approve}."
      },
      "balanceOf(address)": {
        "details": "See {IERC721-balanceOf}."
      },
      "getApproved(uint256)": {
        "details": "See {IERC721-getApproved}."
      },
      "getRoleAdmin(bytes32)": {
        "details": "Returns the admin role that controls `role`. See {grantRole} and {revokeRole}. To change a role's admin, use {_setRoleAdmin}."
      },
      "grantRole(bytes32,address)": {
        "details": "Grants `role` to `account`. If `account` had not been already granted `role`, emits a {RoleGranted} event. Requirements: - the caller must have ``role``'s admin role. May emit a {RoleGranted} event."
      },
      "hasRole(bytes32,address)": {
        "details": "Returns `true` if `account` has been granted `role`."
      },
      "isApprovedForAll(address,address)": {
        "details": "See {IERC721-isApprovedForAll}."
      },
      "name()": {
        "details": "See {IERC721Metadata-name}."
      },
      "ownerOf(uint256)": {
        "details": "See {IERC721-ownerOf}."
      },
      "renounceRole(bytes32,address)": {
        "details": "Revokes `role` from the calling account. Roles are often managed via {grantRole} and {revokeRole}: this function's purpose is to provide a mechanism for accounts to lose their privileges if they are compromised (such as when a trusted device is misplaced). If the calling account had been revoked `role`, emits a {RoleRevoked} event. Requirements: - the caller must be `callerConfirmation`. May emit a {RoleRevoked} event."
      },
      "revokeRole(bytes32,address)": {
        "details": "Revokes `role` from `account`. If `account` had been granted `role`, emits a {RoleRevoked} event. Requirements: - the caller must have ``role``'s admin role. May emit a {RoleRevoked} event."
      },
      "safeTransferFrom(address,address,uint256)": {
        "details": "See {IERC721-safeTransferFrom}."
      },
      "safeTransferFrom(address,address,uint256,bytes)": {
        "details": "See {IERC721-safeTransferFrom}."
      },
      "setApprovalForAll(address,bool)": {
        "details": "See {IERC721-setApprovalForAll}."
      },
      "symbol()": {
        "details": "See {IERC721Metadata-symbol}."
      },
      "tokenURI(uint256)": {
        "details": "See {IERC721Metadata-tokenURI}."
      },
      "transferFrom(address,address,uint256)": {
        "details": "See {IERC721-transferFrom}."
      }
    },
    "version": 1
  },
  "userdoc": {
    "kind": "user",
    "methods": {},
    "version": 1
  }
}